:020000040000fa
:080000000001040000000000f3
:020000040000fa
:10000800ce010000ce010000ce010000ce010000ac
:10001800ce010000ce010000ce010000ce0100009c
:10002800ce010000ce010000ce010000ce0100008c
:10003800ce010000ce010000ce010000ce0100007c
:10004800ce010000ce010000ce010000ce0100006c
:10005800ce010000ce010000ce010000ce0100005c
:10006800ce010000ce010000ce010000ce0100004c
:10007800ce010000ce010000ce010000ce0100003c
:10008800ce010000ce010000ce010000ce0100002c
:10009800ce010000ce010000ce010000ce0100001c
:1000a800ce010000ce010000ce010000ce0100000c
:1000b800ce010000ce01000036270000ce0100006e
:1000c800ce010000ce010000ce010000ce010000ec
:1000d800ce010000ce010000ce010000ce010000dc
:1000e800ce010000ce010000ce010000ce010000cc
:0800f800ce010000ce01000062
:020000040000fa
:10010800ce010000ce010000ce010000ce010000ab
:10011800ce010000ce010000ce010000ce0100009b
:10012800ce010000ce010000ce010000ce0100008b
:10013800ce010000ce010000ce010000ce0100007b
:10014800ce010000ce010000ce010000ce0100006b
:10015800ce010000ce010000ce010000ce0100005b
:10016800ce010000ce010000ce010000ce0100004b
:10017800ce010000ce010000ce010000ce0100003b
:10018800ce010000ce010000ce010000ce0100002b
:10019800ce010000ce010000ce010000ce0100001b
:1001a800ce010000ce010000ce010000ce0100000b
:1001b800ce010000ce01000036270000ce0100006d
:1001c800ce010000ce010000ce010000ce010000eb
:1001d800ce010000ce010000ce010000ce010000db
:1001e800ce010000ce010000ce010000ce010000cb
:0801f800ce010000ce01000061
:020000040000fa
:10020000efd020000e7f22000e01880000000000c9
:10021000000020000000e000020032000001200089
:10022000200288000c000700404523000100200048
:100230001f000700000020000000e0000200320064
:100240000000020000000000a605020000000000ff
:100250000040da000000fe004440a9000004200035
:100260000000e0000300320000002000a001880030
:100270004440a80000000600f03fb1000180b1003a
:1002800006003500ee03090000000000403fb10009
:100290000180b100fbff3d001000b000203fb00026
:1002a0000200350000800900000000000000060088
:1002b00091018800800078000000eb0015003700f5
:1002c000e280400032a0b4009101ba00e280400018
:1002d00032a0b4009102ba00e280400032a0b40023
:1002e0000002eb00472bde00f507b200602ce100b6
:1002f00004003a000059eb008301e900fdff3e00d5
:10030000040037006128e100010032000082eb00a8
:10031000040007001101ba000200e000e8ff3a0003
:10032000000006003159ba008301e9000c003200d8
:100330002159ba008301e900080032000400e000fe
:1003400003003a00e280400032a0b400f5ff37001d
:1003500011d9ba008301e900faff3a008100e800f0
:10036000e180400032a0b40000000600ac1c040094
:10037000000000004e1d040000000000c41d040029
:10038000000000001a1e0400000000005a1e0400b5
:10039000000000007a1e0400000000000040da00a7
:1003a0000000fe003200f800910188000008bb0048
:1003b000410424006210e100040032000002200029
:1003c0000010e1000a003a0051042400013b8800bb
:1003d0000500fc0051052000313b8800a10a2000e7
:1003e000313b880061e7a800000000000000000029
:1003f0003200f900000006003200f800600424001a
:10040000003b8800f2ff37003200f80091018800bd
:1004100041002400013b88000208bb00ecff3700cc
:100420003200f8009101880051002400013b88004f
:10043000030120003218bb008301e900fdff3a00f0
:10044000e3ff37006022b800060220000000d00061
:100450008180d2000482d2008582d2000000a000f8
:100460000202520083825a0003003100020242005d
:1004700083824a000000a1000603e900f3ff3a006e
:10048000000006006011b800f3003700889fbe002e
:100490008a9fbe008c1f78001e01070025013300d3
:1004a00003866c006450e100240032006420e10007
:1004b000270032006150e100220032006120e1009b
:1004c000210032008b854200eb07b1000134b800f7
:1004d000003ab8000804420089844a00013ab80092
:1004e0000030b8008880400009014a000400330051
:1004f0000000400081804800020149008b05e900ae
:10050000c909dd00830170000100320013002000e2
:10051000c814de004814dd004709de001200b200f6
:10052000c808de00088470001201070001f0a10075
:100530000cf0a70001f0a000070137006120e100e6
:10054000090132000801be000200be00f7ff3700bb
:100550006150e100fcff3a00030137001400200065
:100560002a01370003f0a200889fbe008a9fbe00c8
:100570008c1f7800e7000700ee0033006450e100b4
:100580004f0032006420e1005200320003826c0010
:1005900007003b000905d0000306d000820f54007d
:1005a0000c065d000200390002003200890178006b
:1005b000030678008582550004003d000003fd001d
:1005c0008103fd008502ea008b854200840f7200e2
:1005d00002003b0060001000e08018006011b800cd
:1005e0000005eb007a28e1000a00390006007800d7
:1005f000c75ddd00f707b200878075002d0037006a
:10060000828171000a017800610560008180d1005b
:100610000080d3008502e900f9ff3b00060440009a
:100620008784480002003b0060041400e0841c0042
:100630000988a300070032008a817100828171005d
:10064000610164008904d1000884d3008b05e800af
:10065000170037000978a30013003a000b00e000f0
:10066000130034008b05e9000804440089844c0021
:100670000a4474000978a3000d003a000b00e00062
:10068000070034008b05e9000804440089844c000d
:1006900001003a000b0020000978a300f7ff3200a8
:1006a0000001eb0002003700828171000a0178002e
:1006b000b00007000cf0a70001f0a000a600370072
:1006c0006420e10002003a00838f6c00a600330032
:1006d0000801be000200be009f003700889fbe00d8
:1006e0008a9fbe008c1f78008a00070091003300ab
:1006f00003866c006450e1002e0032006420e100ab
:10070000330032006150e1002f0032006120e1002f
:100710003100320085855500eb07b000090020004c
:1007200008042000050037000804440089844c00b8
:100730000a0031000603430087834b000001530089
:1007400081815b00f8ff33000203be000800a000b7
:100750000804440089844c00f6ff3900c639dd00e6
:100760008301730001003200130020008904d100ce
:100770000884d3000998a300050032000800a700f0
:100780000300a0008904d1000884d3008b05e80091
:100790008904d1000884d3000001eb000281d2005b
:1007a0007400070001f0a1000cf0a70001f0a00008
:1007b000690037006420e1006b0032000801be00d0
:1007c0000200be00f7ff37006120e1006600320042
:1007d0006000b800f3ff37000000200001f8270098
:1007e000f0ff3700f4ff2f00880037000001be0043
:1007f000a10007000470a70003f0a10003f8a30004
:1008000013003a006509b1001000320009003500fc
:100810006928e10002003500010028000000050001
:1008200000004000818048008502e900fcff3a009a
:1008300000000600f88f4200050035008100d1005d
:100840000080d3008502e800fcff3a0000000600ab
:100850008000eb0000000500889fbe008a9fbe005c
:1008600000827000040271000482710026003200d0
:100870000004be000200be006011b8006b09200039
:10088000950220000182cf000a0039000541b10025
:100890000082cf00070039000541b1000982cf0076
:1008a000040039000541b1000882cf000100390081
:1008b0000541b10005425200120032000a003b001f
:1008c00082817100610164008100d1000080d30049
:1008d0008984d3000884d3008b05e8000442e80033
:1008e000f7ff3a00070037000804440089844c00f1
:1008f00000004800818048008b05e9000442e900bf
:10090000f9ff3a001b0007004f05be004f04be0070
:10091000000006000004be00570007000003be00f0
:100920000405be000200be0053000700844f75009e
:10093000000006000200be006450e1000500360021
:100940006420e100020036000968a30001003a00bb
:100950000800be000160a0004f0678004f05be00f1
:100960004f04be0000000600f0ff2f00f1ff27003b
:10097000f9ff370081002000618055000b003d0029
:100980000b00200061fe2f000100e1001d0034007b
:1009900082817100610164008904d1000884d30060
:1009a0000000e800faff3a007100200061006400d6
:1009b000030070000200600009003200610444007e
:1009c000e0844c000988a500050032008b05e80092
:1009d0006808e10002003a008904d1000884d300cd
:1009e000f20f20000258e10005003d00c75ddd0068
:1009f000f907b20089807500080078000000060041
:100a00000bf827008b00780000000500889fbe00cf
:100a10008a9fbe00841f7800beff07004f00780049
:100a200011003300f0ff2f00838f6c0006003b00a5
:100a3000040565000a00a7000800370009f0a600b9
:100a40001000200008003700820f5400838f5c00e4
:100a5000030039001000200001003e0000002000cb
:100a600009f0a7000000ea004f05be004f04be00d9
:100a70000000e00000000600c70ade00f107b20037
:100a8000f50fb20008003200e1cf42000200320050
:100a90000170a00024000500810f700001003200e9
:100aa0000408050044000500810f700002003a00b0
:100ab000140005008502e9000000400081c04800e4
:0c0ac000fcff3b000170a00024000500ba
:020000040000fa
:100acc00000000000080000000000000008000001a
:100adc00000000000080000000000000008000000a
:100aec0000000000008000000000000000800000fa
:100afc0000000000008000000000000000800000ea
:100b0c0000000000000000000000000000000000d9
:100b1c0000000000000000000000000000000000c9
:100b2c0000000000000000000000000000000000b9
:100b3c0000000000000000000000000000000000a9
:020000040000fa
:100b4c000000fa000082eb00441588008540a900e3
:100b5c008d40a9008520a9008d20a9000de2a900d7
:100b6c0064c0b3000002fd009aecb7000002fd0067
:100b7c00fb02070005e1a8000002eb00144088000e
:100b8c000002eb00f44088000002eb008440880077
:100b9c00224ca800220ca800232ca80023aca800ef
:100bac00238ca800236ca800234ca800030007008a
:100bbc00850507008e0d0700fcff37000000fa00ca
:100bcc00e4c520001402780064026200e00f5200b9
:100bdc000c003200230ca800a4c920001442780099
:100bec008482fb00f407200084826200040220004f
:100bfc00848f5200040034000040eb0044040700d2
:100c0c0001003700230ca900a4c92000144278006d
:100c1c000482fb006123b900a4ff2f00f5ff2f0015
:100c2c000602420087824a00a60920000700200025
:100c3c00860f5200878f5a0099023e000460010013
:100c4c009a00370096023700ab0037009402370049
:100c5c00930237009202370091023700900237005e
:100c6c008f0237008e023700bb0037008c02370032
:100c7c00c20037008a023700dc00370088023700d8
:100c8c0028013700860237008502370084023700be
:100c9c00830237008202370081023700800237005e
:100cac007f0237007e023700420137007c0237009a
:100cbc00530137007a02370072013700780237008f
:100ccc008201370076023700750237007402370054
:100cdc00730237007202370071023700700237005e
:100cec006f0237006e023700930137006c02370039
:100cfc00960137006a023700a701370068023700f7
:100d0c00b70137006602370065023700640237000e
:100d1c00630237006202370061023700600237005d
:100d2c005f0237005e023700bf0137005c023700fc
:100d3c00c20137005a023700ca0137005802370087
:100d4c00da013700560237005502370054023700db
:100d5c00530237005202370051023700500237005d
:100d6c004f0237004e0237004d0237004c0237005d
:100d7c004b0237004a02370049023700480237005d
:100d8c00470237004602370045023700440237005d
:100d9c00430237004202370041023700400237005d
:100dac003f0237003e0237003d0237003c0237005d
:100dbc003b0237003a02370039023700380237005d
:100dcc00370237003602370035023700340237005d
:100ddc00330237003202370031023700300237005d
:100dec002f0237002e0237002d0237002c0237005d
:100dfc002b0237002a02370029023700280237005d
:100e0c00270237002602370025023700240237005c
:100e1c00230237002202370021023700200237005c
:100e2c001f0237001e023700a50137001c023700d5
:100e3c001b0237001a02370019023700180237005c
:100e4c00170237001602370015023700140237005c
:100e5c00130237001202370011023700100237005c
:100e6c000f0237000e0237000d0237000c0237005c
:100e7c000b0237000a02370009023700080237005c
:100e8c00070237000602370005023700040237005c
:100e9c00030237000202370001023700000237005c
:100eac00ff013700fe013700bd0137000042eb00a7
:100ebc000002fd009becb7000002fd00b4412000d5
:100ecc0054468800648620008447880084f72000fc
:100edc003448880084ca2000244888000002eb00b3
:100eec009467880084c0b3000002fd009aecb70040
:100efc000002fd001002370024048000680262002a
:100f0c00e00f5200040032008460a9009467800056
:100f1c000402e8009467880094678000ea0f52008e
:100f2c00e401360014002000a447880014002000bf
:100f3c004448880014002000544888000002eb004c
:100f4c009467880004c1b3000002fd009aecb7005e
:100f5c000002fd00f8013700146180006402620099
:100f6c00e00f5200d5013a0024c1b3000002fd008d
:100f7c009aecb7000002fd00ef013700b4c9200065
:100f8c00144278000414a0000002fd009becb70092
:100f9c000002fd0044062000f46488000002eb000f
:100fac00a467880014002000046588000002eb0090
:100fbc0094678800f5408000d4d52100848f5200be
:100fcc00c0013600a4658000e00f5200bf013a005a
:100fdc0010c0b300f40207000042eb000002fd0059
:100fec00b6ecb7000002fd00d301370024048000ea
:100ffc0068026200e00f5200b60132008460a90062
:10100c00f4648000e00f520003003200f4648000ae
:10101c000402e900f4648800946780000402e8008c
:10102c0094678800a4678000e00f52000d003a001e
:10103c00f44080004922de00a4678800a467800089
:10104c00e90f520002003e00a4002000a4678800b3
:10105c00a46780000441880014002000144188001b
:10106c001d00370014418000e00f52001a003200be
:10107c0015468000143b2000848f52000c003e006b
:10108c0005418000a467800004824200044188006e
:10109c0005418000f4408000848f52000400390028
:1010ac00f4408000044188000002eb0014418800e9
:1010bc00f4648000e00f520007003a000541800004
:1010cc00d4d52100848f520003003e002000200064
:1010dc00aa0a07009801370014418000e00f520063
:1010ec00040032000441800004007800180407005a
:1010fc00910137000002eb0014418800f44080009d
:10110c00040078001204070044062000f4648800f0
:10111c0064c1b3000002fd009aecb7000002fd00b0
:10112c00850137002404800068026200e00f520041
:10113c0007003200f4648000e00f5200030032001c
:10114c00f46480000402e900f46488008460a9005f
:10115c00f4648000e00f520060013a0004c2b30056
:10116c000002fd009aecb7000002fd000042eb000b
:10117c000002fd00b2ecb7000002fd0014002000dc
:10118c00c44588000002eb0004658800232ca900ec
:10119c00b5c920009542780004c4b30004c27200a3
:1011ac000002fd009becb7000002fd00d062a8001d
:1011bc006101370044cc200014427800e04f52000b
:1011cc000500320004c3b3000002fd009aecb70026
:1011dc000002fd0058013700e4c52000140278001d
:1011ec0061026200e00f52003e013a0024c2b300db
:1011fc000002fd009aecb7000002fd004e01370022
:10120c00e4c520001402780061026200e00f520075
:10121c0010003a00b4c92000144278000414a00055
:10122c000002fd009becb7000002fd000002eb0089
:10123c0094678800e4c52000140278006402620000
:10124c00e00f520029013a0010c0b300b0020700b1
:10125c003901370004c2b3000002fd009aecb7005c
:10126c000002fd00b5c9200095427800d4cfb30030
:10127c0004c262000002fd009becb7000002fd00fe
:10128c002d0137002404800068026200e00f520038
:10129c00040032008460a900946780000402e80016
:1012ac009467880094678000ea0f520011013600a1
:1012bc000002eb009467880064c2b3000002fd00da
:1012cc009aecb7000002fd001b01370024048000db
:1012dc0068026200e00f5200040032008460a90032
:1012ec00946780000402e80094678800946780008b
:1012fc00ea0f5200010136000002eb0094678800ef
:10130c00b5c920009542780004c8b30004c272002d
:10131c000002fd009becb7000002fd001400200051
:10132c00e443880004c3b3000002fd009aecb7004c
:10133c000002fd000001370024c3b3000002fd00d1
:10134c009aecb7000002fd00fb003700b4c9200086
:10135c00144278000414a0000002fd009becb700be
:10136c000002fd000002eb009467880095438000aa
:10137c0034382000848f5200e20036008540800013
:10138c0054092000848f5200e000360010c0b300d6
:10139c00be020700e80037002404800068026200e7
:1013ac00e00f5200040032008460a90094678000b2
:1013bc000402e8009467880094678000ea0f5200ea
:1013cc00d40036000002eb009467880064c3b300bd
:1013dc000002fd009aecb7000002fd00d6003700b9
:1013ec002404800068026200e00f52000400320006
:1013fc008460a900946780000402e8009467880068
:10140c0094678000e20f5200c40036000002eb002b
:10141c009467880004c4b3000002fd009aecb70086
:10142c000002fd00c400370024c4b3000002fd001c
:10143c009aecb7000002fd00bf003700b4c92000d1
:10144c00144278000414a000040078009becb70050
:10145c000002eb009467880010c0b300e3020700a1
:10146c00b50037002404800068026200e00f5200cf
:10147c00040032008460a900946780000402e80034
:10148c009467880094678000e20f5200a500360034
:10149c000002eb009467880064c4b3000002fd00f6
:1014ac009aecb7000002fd00a3003700e9a2a900e6
:1014bc00c542a800cb02a800220ca9009e00370050
:1014cc0064cb200014427800e04f52000b003a002d
:1014dc0024cb200014427800e04f52000700320069
:1014ec00441f2000a465880014c0b3000002fd0056
:1014fc00c1ecb7000002fd000d003700e4c5200070
:10150c001402780061026200e00f52000800320001
:10151c0024cb200014427800e04f520004003a0023
:10152c0014c0b3000002fd00c1ecb7000002fd00c6
:10153c0014cc200014427800e04f52007b003200a3
:10154c000042eb0004007800c1ecb7008080eb0097
:10155c00100020007e0707008080eb002000200098
:10156c007b0707008080eb00300020007807070025
:10157c00c905070044c2200045c22000950278002e
:10158c00e4826200050a7800d082a80064c0b3002f
:10159c000002fd009aecb7000002fd006600370067
:1015ac00e4c520001402780061026200e00f5200d2
:1015bc000400320014c0b3000002fd00c1ecb700ff
:1015cc000002fd0014cc200014427800e04f5200c1
:1015dc00580032000042eb0004007800c1ecb70068
:1015ec008080eb0010002000590707008080eb0082
:1015fc0020002000560707008080eb003000200000
:10160c005307070044c220008002eb00050a780053
:10161c00c4458000e10f5200020036001400200087
:10162c00c445880014478000e10f520002003600c8
:10163c001400200014478800f4438000e10f52008e
:10164c000200360014002000f4438800e4438000bc
:10165c00e10f52000200360014002000e443880021
:10166c00d082a80084a9200014427800e04f5200d8
:10167c000600350084a92000144278000002fd0009
:10168c009aecb7000002fd002b00370064c0b300d9
:10169c000002fd009aecb7000002fd0026003700a6
:1016ac0025cca800010120001000200078060700be
:1016bc0021003700000000001f0037000000000070
:1016cc001d003700000000001b0037000000000068
:1016dc001900370000000000170037000000000060
:1016ec001500370000000000130037000000000058
:1016fc0011003700000000000f0037000000000050
:10170c000d003700000000000b0037000000000047
:10171c00090037000000000007003700000000003f
:10172c000500370000000000030037000000000037
:10173c000100370000000000a4c92000144278000a
:10174c00e04f520004003500a4c920001442780078
:10175c000400780098eab7000080fa000000060048
:10176c000200fa0044c220008002eb00050a780057
:10177c0024c220008002eb00050a78000002eb0076
:10178c00346188000002eb004461880014002000e2
:10179c00d46188000002eb00c461880014002000b2
:1017ac00e4618800148e25003463880014c522007f
:1017bc0054638800543822007463880004562d004a
:1017cc009463880054e32800b4638800a471240057
:1017dc00d4638800d4a32a00f463880094aa22005e
:1017ec00146488006410210034648800648820002c
:1017fc00546488001400230074648800c484270097
:10180c0094648800d4032f00b4648800d7a2a90084
:10181c00d7c2a900d7e2a900c542a900cb82a90072
:10182c00cb42a900cb02a900cbc2a800cba2a80036
:10183c00e282a900e9c2a900e982a800e9a2a800f5
:10184c00e9e2a800d022a800d062a800d082a800ab
:10185c00a404800004c0a00004d0a10004e0a000f7
:10186c00a404880004002f000416880004a028009b
:10187c00341688000002eb00641688000002eb00ae
:10188c009416880054082000f416880014002000d8
:10189c00241788000002eb00040f7800900037003a
:1018ac001e02780004f0a7000402ea000402ea0019
:1018bc004f22de00044278000482fb0061026200c9
:1018cc004e22dd0046178000f5ff2b0085026300d9
:1018dc000502720044178800007c22009100200051
:1018ec0062fa07000060fe001e02780004f0a700f8
:1018fc000402ea000402ea004f22de0004427800ef
:10190c000482fb00610262004c22dd00461780005d
:10191c00f5ff2e0085026300050272004417880053
:10192c00007c22009100200050fa07000060fe00ad
:10193c001e02780004f0a7000402ea000402ea0088
:10194c004f22de00044278000482fb006102620038
:10195c004d22dd0046178000f5ff2d008502630047
:10196c000502720044178800007c220091002000c0
:10197c003efa07000060fe001e02780004f0a7008b
:10198c000402ea000402ea004f22de00044278005e
:10199c000482fb004f22dd0046178000f5ff270074
:1019ac00850263000502720044178800007c220047
:1019bc00910020002dfa07000060fe001e02780046
:1019cc0004f0a7000402ea000402ea004f22de0041
:1019dc00044278000482fb006102620004024200af
:1019ec0086168000d5ff2f00850263000502720069
:1019fc0084168800007c2200910020001bfa07004e
:101a0c000060fe001e02780004f0a7000402ea0049
:101a1c000402ea004f22de00044278000482fb003c
:101a2c00610262004222dd0086168000b5ff2f00a5
:101a3c00850263000502720084168800007c220077
:101a4c009100200009fa07000060fe001e027800d9
:101a5c0004f0a7000402ea000402ea004f22de00b0
:101a6c00044278000482fb00610262004322dd0024
:101a7c008616800075ff2f00850263000502720038
:101a8c0084168800007c220091002000f7f90700e2
:101a9c000060fe001e02780004f0a7000402ea00b9
:101aac000402ea004f22de00044278000482fb00ac
:101abc00610262004422dd0086168000f5fe2f00d4
:101acc00850263000502720084168800007c2200e7
:101adc0091002000e5f907000060fe001e0fe800f1
:101aec001e027800e10f52006dff3600e9c2a9001a
:101afc00066829008709200004242400f500200032
:101b0c00f3fb2d000001eb0021032b0010c0b300f0
:101b1c007b0f07008d20a900c40480000440a000a6
:101b2c000450a0000460a100c40488008d40a900ea
:101b3c00c40480000440a0000450a0000460a10074
:101b4c00c4048800d4fa25002408880094d023000b
:101b5c00140888000002eb00040888008460a900c7
:101b6c0054f82500f4088800440d2300e40888008c
:101b7c000002eb00c408880086c0a900f4048000b1
:101b8c000480a0000490a10004a0a000f40488002c
:101b9c00d4f92d000409880070090700390c0700de
:101bac000080fa00000006000200fa00004f7800e6
:101bbc001e427800e04f520023003200a4c92000de
:101bcc0014427800f24f52004f003a008080eb0034
:101bdc0040002000af03070044c1b3000002fd0029
:101bec009aecb7000002fd000082eb00d4418800a3
:101bfc00b4c92000144278000404a0000002fd00c7
:101c0c009becb7000002fd00b5c92000954278009e
:101c1c00d4cfb30004c262000002fd009becb700fd
:101c2c000002fd0044062000f4648800d062a90084
:101c3c0023aca90014002000d44588001400200017
:101c4c0074468800300037000040eb00300007007d
:101c5c008000eb00400020008e0307000002eb0028
:101c6c00d44188000000eb0039010700d062a800c5
:101c7c0084bb2000f46488000042eb000002fd00ed
:101c8c00c4ecb7000002fd000002eb00d445880054
:101c9c000002eb00c44588000002eb00744688008b
:101cac000002eb006446880064c0b3000002fd0033
:101cbc0098eab7000002fd00a4c920001442780085
:101ccc00e04f520005003d0004c8b3000002fd00c7
:101cdc009aecb7000002fd000300370064c0b300ab
:101cec00040078009aecb700b5c920009542780042
:101cfc00e4cbb30004c26200040078009becb70094
:101d0c0023aca800232ca8000080fa0000000600d9
:101d1c000200fa00004f78001e427800e04f52009b
:101d2c0024003200a5c920009542780024c2b300db
:101d3c0084cf520053003a00144080000400780015
:101d4c000a0107008080eb003000200051030700df
:101d5c00cb82a800e9e2a90044c2b3000002fd0056
:101d6c009aecb7000002fd000082eb006441880091
:101d7c0014002000f4438800b4c9200014427800f9
:101d8c000424a0000002fd009becb7000002fd0043
:101d9c00b5c9200095427800d4cfb30004c26200cc
:101dac000002fd009becb7000002fd00238ca90093
:101dbc00340037000040eb00340007008000eb00db
:101dcc0030002000330307000002eb006441880060
:101ddc00b4c9200014427800b447b2000002fd00e0
:101dec009becb7000002fd00e9e2a800cb82a90041
:101dfc000002eb00f44388000002eb00e44388008f
:101e0c000002eb005465880085a9200095427800fb
:101e1c0004c2b30084cf52000800360084a920000d
:101e2c0014427800e04f52000400350004c2b300a5
:101e3c000002fd0098eab7000002fd00a4c92000d2
:101e4c0014427800e04f520005003d0004cab30074
:101e5c000002fd009aecb7000002fd0008003700fc
:101e6c00a5c920009542780004c2b30084cf52006b
:101e7c000300360004c2b300040078009aecb700eb
:101e8c00238ca8000080fa00000006000200fa0073
:101e9c00004f78001e427800e04f520023003200c1
:101eac00a5c920009542780024c3b30084cf52000a
:101ebc004c003a008440800004007800b200070017
:101ecc008080eb0050002000f2020700cb42a800fb
:101edc0044c3b3000002fd009aecb7000002fd0001
:101eec000082eb0044428800140020001447880054
:101efc00b4c92000144278000434a0000002fd0094
:101f0c009becb7000002fd00b5c92000954278009b
:101f1c00d4cfb30004c262000002fd009becb700fa
:101f2c000002fd00236ca9002e0037000040eb00de
:101f3c002e0007008000eb0050002000d5020700a7
:101f4c000002eb0044428800b5c92000954278009d
:101f5c0074cfb30004c262000002fd009becb7001a
:101f6c000002fd00cb42a90085a920009542780013
:101f7c0004c3b30084cf52000800360084a92000ab
:101f8c0014427800e04f52000400350004c3b30043
:101f9c000002fd0098eab7000002fd00a4c9200071
:101fac0014427800e04f520005003d0004cab30013
:101fbc000002fd009aecb7000002fd00080037009b
:101fcc00a5c920009542780004c3b30084cf520009
:101fdc000300360004c3b300040078009aecb70089
:101fec00236ca8000080fa00000006000200fa0032
:101ffc00004f78001e427800e04f52002300320060
:10200c00a5c920009542780024c4b30084cf5200a7
:10201c004d003a008080eb00600020009d0207001c
:10202c0044c4b3000002fd009aecb7000002fd00ae
:10203c000082eb00b4428800140020001447880092
:10204c0014002000f443880014002000e4438800ae
:10205c00b4c92000144278000444a0000002fd0022
:10206c009becb7000002fd00b5c92000954278003a
:10207c00d4cfb30004c262000002fd009becb70099
:10208c000002fd00234ca9002f0037008000eb005c
:10209c00600020007f0207000002eb00b4428800c1
:1020ac00b5c9200095427800d4ceb30004c26200ba
:1020bc000002fd009becb7000002fd00e9a2a800a5
:1020cc00c542a900cb02a900220ca80085a92000ba
:1020dc009542780004c4b30084cf52000800360047
:1020ec0084a9200014427800e04f5200040035000f
:1020fc0004c4b3000002fd0098eab7000002fd0022
:10210c00a4c9200014427800e04f520005003d00a5
:10211c0004cab3000002fd009aecb7000002fd00f7
:10212c0008003700a5c920009542780004c4b3000c
:10213c0084cf52000300360004c4b30004007800be
:10214c009aecb700234ca8000080fa0000000600af
:10215c000200fa00000f78009e007800200020009a
:10216c004c0207000080fa00000006000200fa0092
:10217c00000f78009e0078000000eb00450207007d
:10218c000080fa00000006000200fa00000f780040
:10219c009e007800100020003e0207000080fa002c
:1021ac00000006000200fa00000f78009e00780084
:1021bc0070002000370207001e02780024438800bc
:1021cc000080fa00000006000800fa0094002000cd
:1021dc0044688800043a800061026200e00f5200fb
:1021ec0003003200b46680000440a000b46688008e
:1021fc00053a80000408200004826200e00f5200bf
:10220c0004003200b5668000040220000502720052
:10221c00b4668800053a8000040420000482620041
:10222c00e00f520004003200b56680000404200068
:10223c0005027200b4668800043a800062026200f3
:10224c00e00f520003003200b46680000400a000ce
:10225c00b4668800053a80000400280004826200fd
:10226c00e00f520003003200b46680000410a0009e
:10227c00b4668800043a800070026200e00f5200dd
:10228c0003003200b46680000420a000b46688000d
:10229c00053a80000400240004826200e00f520022
:1022ac0003003200b46680000430a000b4668800dd
:1022bc000060fe0084ce200014427800eb4f5200e8
:1022cc0074003e0084ce2000144278000482fb008f
:1022dc0004007800a001070000027800050020002f
:1022ec00140798002507980084ce2000144278002b
:1022fc00e84f52001e003e0084ce200014427800ad
:10230c000482fb001e0390007422b9008402780042
:10231c002487200004824200060a780084ce200024
:10232c00144278000483fb007432b9000402780074
:10233c00e402420004872000048242001402780068
:10234c008403e8007432b9008402780044872000ca
:10235c0004824200070a780084ce200014427800e0
:10236c000482fb000400780035040700bc00370031
:10237c0084ce200014427800e94f5200b800360099
:10238c0084ce200014427800eb4f5200b4003e0083
:10239c0084ce2000144278000482fb0069025200b3
:1023ac00040f78001e039000ae039000449c2000a4
:1023bc0005002000840f5300858f5b0008003e0051
:1023cc001e02780015002000042add00840278002b
:1023dc00246580000502720024658800080037001f
:1023ec001e02780015002000042add000482ea0099
:1023fc0084027800246580000482620024658800d1
:10240c001e0278004422dd00ee024200849320007c
:10241c00048242009402780024062000848f52002b
:10242c008f003e00100020001e039000ae039000b1
:10243c00449c200005002000840f5300858f5b0016
:10244c0001003e000000eb001e027800c422dd00fb
:10245c008493200004824200000a78001e0390003e
:10246c00ae039000449c200005002000840f530014
:10247c00858f5b007a003e001e027800150020005c
:10248c00042add00840078003000200000030700df
:10249c0073003700b70107000002be001407980054
:1024ac00250798001e039000ae039000043c20000a
:1024bc0005002000060078000703780084037800ec
:1024cc00050278000700600004026300050020008c
:1024dc00c022dd00040020000403be006102b8002d
:1024ec00040373008583730004042000050020009e
:1024fc00840f5300858f5b0055003a001e0290003c
:10250c00ae029000402ade0005002000140798005f
:10251c00250798001e029000146588000002eb004d
:10252c00040f7800450037001e02780015002000cb
:10253c00042add006123b9001e029000ae02900057
:10254c000600780007037800840378000502780001
:10255c00070060000402630005002000c022dd00bb
:10256c00040020000403be006102b80004037300e1
:10257c0085837300070278000602720004f0a7003e
:10258c000402ea000402ea004f22de00340798003d
:10259c009e027800668242004422dd00ee02420078
:1025ac0084932000048242009402780024062000c8
:1025bc00848f520020003e009e027800668242000a
:1025cc00c422dd008493200004824200be029000ed
:1025dc00050a78003e029000e00f5200070032001e
:1025ec001e02780015002000042add00840078000b
:1025fc0030002000a60207000f0037009e02780072
:10260c00668242004422dd00ee02420084932000e8
:10261c000482420014027800e00f520006003a00d7
:10262c001e02780015002000042add0084007800ca
:10263c0030002000460307001e0fe8001e02780041
:10264c00ef0f5200b8ff3600d022a900040037006b
:10265c00d022a80011002000100020008c020700de
:10266c0084ce200014427800e84f520005003a0056
:10267c0094c0b3000002fd00e8ecb7000002fd00be
:10268c000800370084ce200014427800eb4f520033
:10269c0004003a00e4c0b3000002fd00e8ecb7000f
:1026ac000002fd0084ce2000144278000442e800b1
:1026bc006f4262000002fd00e8ecb7000002fd0072
:1026cc0084ce200014427800e04f520006003a00fd
:1026dc00546780006567800061024200e0824a0016
:1026ec005467880065678800350480000404200066
:1026fc0004826200e00f52009500320086c0a900ef
:10270c00746780000402e8007467880075678000b5
:10271c00840c2000848f520009003600546780001e
:10272c006567800034658800456588006022b800c4
:10273c0054678800656788000002eb0074678800a6
:10274c00a4c92000144278008482fb00f407200006
:10275c0004826200f20f5200080034001461800001
:10276c0062026200e00f52000400320021002000df
:10277c001000200046020700250ca80004cf200002
:10278c00144278000442e8000002fd00f0ecb700af
:10279c000002fd0004cf200014427800e24f5200ea
:1027ac0005003600510107000042eb000002fd005d
:1027bc00f0ecb7000002fd00944380001460880028
:1027cc003444800024608800d44480003460880045
:1027dc007445800044608800144680005460880072
:1027ec00b4468000646088005447800074608800a0
:1027fc009448800084608800a4c9200014427800aa
:10280c000482fb0094608800f4648000a46088005b
:10281c0014408000e4608800f4408000f46088007c
:10282c00844080000461880054658000e00f5200f1
:10283c000700320055658000743e2000848f5200e2
:10284c0003003e00546580000402e80054658800d3
:10285c0064658000e00f5200030032006465800064
:10286c000402e9006465880074658000e00f520082
:10287c0003003200746580000402e900746588006e
:10288c0084658000e00f52000300320084658000f4
:10289c000402e90084658800a4658000e00f520002
:1028ac0003003200a46580000402e900a4658800de
:1028bc0044c220001402780064026200e00f52004f
:1028cc001300320024cb200014427800e04f520059
:1028dc000f003a00e4c52000140278006102620087
:1028ec00e00f52000a003200d466800061026200e0
:1028fc00e00f520006003a0044c2200045c22000fe
:10290c0015037800b5ff2f0085026300050a7800d7
:10291c00e46480008402e800f40320000482620076
:10292c00e4648800e4648000e00f520008003a0080
:10293c00451780000400210004826200e00f520061
:10294c0002003200e982a90001003700e982a800e8
:10295c000080fa00000006000a00fa004007980008
:10296c00b5168000f4ff2100048f620004002400df
:10297c001e0f72001e027800b4168800a000200002
:10298c000100200039f6070004012000040f780034
:10299c001e8fea00f40f20001e02620011c0b3006b
:1029ac0004007800a10c070044072000040f7800f5
:1029bc001e8fea00f40f20001e02620011c0b3004b
:1029cc0004007800990c07004e029000c322dd0031
:1029dc0064082000048f72001e8fea00f40f2000a0
:1029ec001e02620011c0b300040078008f0c0700b7
:1029fc000002be001407980011c0b3000080eb0069
:102a0c008a0c07000002be00040278008482ea00ef
:102a1c00f40f2000048262002407980011c0b30058
:102a2c000080eb00810c07000002be00040278005d
:102a3c008482ea00f40f20000482620034079800bc
:102a4c00b5168000f4ff2100048f62001e0378008d
:102a5c00b6168800a00020000100200003f6070035
:102a6c002e029000c822dd003e0290000403780084
:102a7c000503730086027800f4ff200004826200d4
:102a8c00140798001e029000040078000080fa00e1
:102a9c00000006000800fa00200798003107980093
:102aac002e029000e70f52002f003e00b51680005a
:102abc00f4ff2100048f6200040022001e0f72003c
:102acc001e027800b4168800a0002000010020002f
:102adc00e6f50700ae02900004032000048f72009c
:102aec001e8fea0011c0b3001e0078004f0c0700c7
:102afc000002be00140798003e0290004822de003f
:102b0c00040f78001e8fea0011c0b3001e0078007d
:102b1c00460c07000002be0014079800be0290008d
:102b2c00f40f2000048f62001e8fea0011c0b30066
:102b3c001e0078003d0c07000002be001407980030
:102b4c00b5168000f4ff2100048f62001e0278008d
:102b5c00b4168800a000200001002000c3f5070077
:102b6c000000000001003700000000000080fa00a7
:102b7c00000006000800fa006022b8001407980054
:102b8c0025079800b5168000f4ff2100048262002e
:102b9c0034079800be029000040028000502720061
:102bac00340798003e029000b4168800a000200064
:102bbc0001002000adf507000002eb00040f7800c7
:102bcc00240037001e039000ae039000483add004d
:102bdc00c832de00850272004832dd00140798000e
:102bec002507980011c0b3000080eb000f0c070004
:102bfc000002be000483ea008583ea00f40f200083
:102c0c000500200006007800070378008403780094
:102c1c000502780007006000040263000500200034
:102c2c00c022dd00040020000403be006102b800d5
:102c3c0004037300858373001e029000ae029000a3
:102c4c00060272008782720014079800250798000c
:102c5c001e0fe8001e027800e30f5200d9ff360069
:102c6c00b5168000f4ff210004826200340798003e
:102c7c003e029000b4168800a00020000100200045
:102c8c007af507001e029000ae0290000400be0010
:102c9c000080fa00000006000200fa00b516800061
:102cac00f4ff2100048f620004002e001e0f72003e
:102cbc001e027800b4168800a0002000010020003d
:102ccc006af50700b5168000f4ff2100048f62003e
:102cdc001e027800b4168800a0002000010020001d
:102cec0062f507000080fa00000006000400fa00fc
:102cfc0044ce200014427800e04f52000200320013
:102d0c00843e20000100370084bb2000040f7800b3
:102d1c00f000200010ff0700000278001407980054
:102d2c0084f32f009e0242001e029000848f5200fa
:102d3c0005003c00840c20009e0242001e02900004
:102d4c00848f52000a003d00346780000402e800c2
:102d5c003467880034678000e40f520006003600a8
:102d6c004100200010002000c900070002003700bd
:102d7c000002eb003467880044ce20001442780037
:102d8c00e04f5200070032000042eb000002fd0051
:102d9c00e4ecb7000002fd0004b82b00040f78002f
:102dac000500370014c0b30004007800e4ecb70051
:102dbc0004e82300040f78001e0278000400780059
:102dcc00f8fc07000080fa00000006000200fa0080
:102ddc00000f7800c4a92e009e027800848f520048
:102dec0002003600c4a92e00040f7800146780007e
:102dfc009e0f5200080032001e02780014678800f3
:102e0c001e027800144088004a0407001440800019
:102e1c0004007800d5fc07000080fa0000000600d2
:102e2c000200fa00000f7800941028009e0278002f
:102e3c00848f52000200360094102800040f780092
:102e4c00046780009e0f5200140032001e027800ae
:102e5c00046788001e0278008440880095040700ef
:102e6c008440800004007800c7fc0700540920004f
:102e7c009e027800848f520008003e00b4c92000e6
:102e8c00144278000482fb0068026200e00f5200da
:102e9c00020034000040eb00fcfb07000080fa004d
:102eac00000006000200fa00000f780094902b003e
:102ebc009e027800848f52000200360094902b0002
:102ecc00040f7800f46680009e0f52001c00320044
:102edc001e027800f46688001e027800f440880018
:102eec0092030700d4d521009e027800848f5200f3
:102efc000b003600a4c92000144278008482fb0029
:102f0c00f407200004826200f50f52000c0034001c
:102f1c00f4408000040078008dfc070008003700a6
:102f2c00b4c92000144278000482fb0061026200e4
:102f3c00e00f5200020034000040eb001afb0700c7
:102f4c000080fa00000006000200fa000042eb00cc
:102f5c00044f780014408000e00f520003003a0048
:102f6c0014c0b300044f78000b003700f44080000d
:102f7c00e00f520003003a0014c0b300044f780075
:102f8c000500370084408000e00f520002003a0038
:102f9c0014c0b300044f78001e427800044078003f
:102fac000080fa00000006000200fa00004f7800d2
:102fbc00114798009e4278000582fb006123b900fe
:102fcc000082eb008082eb000602420087824a00fe
:102fdc003600200007002000860f5200878f5a0011
:102fec0028003e0004600100030037001000370089
:102ffc00160037001c0037000040eb00eafa07000f
:10300c001e429000e04f52000400320014c0b30086
:10301c000002fd00b6ecb7000002fd0004c8b300ce
:10302c000002fd009aecb7000002fd00160037000c
:10303c000040eb0036fb070004cab3000002fd00a1
:10304c009aecb7000002fd000f0037000040eb00c7
:10305c008efb070004cab3000002fd009aecb70017
:10306c000002fd00080037000040eb00dffb07000a
:10307c0004cab3000002fd009aecb7000002fd0088
:10308c0001003700000000000080fa00000006007c
:10309c000600fa0010079800210798001e02900005
:1030ac00e20f520016003200e30f52001e003200f5
:1030bc00e10f52007c003a00c56680002e029000a1
:1030cc0004826200e00f520079003a00c56680006d
:1030dc002e02900005027200c466880011c0b30075
:1030ec0010c0b300b0ff07002e0290006502620012
:1030fc00e00f520070003200242ca800750037003d
:10310c00d56680002e02900004826200e00f52000f
:10311c006b003a00d56680002e029000050272000a
:10312c00d46688006b003700e56680002e029000a4
:10313c0004826200e00f520063003a00e5668000f2
:10314c002e02900005027200e46688002e029000a8
:10315c00e20f5200030032002e029000e40f5200e6
:10316c0014003a002e029000e20f520002003600ca
:10317c00252ca80001003700242ca8002e0290005a
:10318c000402d100040f78001e0278004422dd00f6
:10319c00ee02420084932000048242001402780064
:1031ac000442780011c0b300044078007eff070091
:1031bc00480037000002eb00040f780008003700cd
:1031cc001e02780015002000042add00840278001d
:1031dc002e029000848f5200050032001e0fe80072
:1031ec001e027800ee0f5200f5ff3600010037008a
:1031fc00000000001e027800ee0f520034003e006a
:10320c001e027800660f42001e0278006123b8008f
:10321c0064ff2f00f5ff2f000602420087824a0050
:10322c007600200007002000860f5200878f5a007e
:10323c000f003e0004600100070037000e0037004d
:10324c00070037000600370007003700060037007c
:10325c00050037000400370024eca80007003700f5
:10326c00254ca80005003700256ca800030037008a
:10327c000000000001003700000000001e02780072
:10328c004422dd00ee0242008493200004824200be
:10329c00140278000442780011c0b3000440780096
:1032ac0041ff07000b003700000000000900370049
:1032bc000000000007003700000000000500370088
:1032cc000000000003003700000000000100370080
:1032dc0000000000c4668000e00f520008003a00b5
:1032ec00d4668000e00f520005003a00e5668000cd
:1032fc0064fd200004826200e00f52000a003200dc
:10330c00d082a900b5c920009542780004c2b30050
:10331c0004c272000002fd009becb7000002fd002d
:10332c00240ca80008003700d082a800b5c92000e2
:10333c0095427800f4cdb30004c26200040078001a
:10334c009becb700240ca9000080fa0000000600da
:10335c000400fa00000f7800110798001e02780094
:10336c00e20f52000a003200e30f52000e0032004e
:10337c00e10f520012003a001e0290008482ea0013
:10338c00c466800004826200c46688000d003700a9
:10339c001e0290008482ea00d466800004826200df
:1033ac00d4668800070037001e0290008482ea0071
:1033bc00e466800004826200e46688000100370045
:1033cc0000000000c4668000e00f520008003a00c4
:1033dc00d4668000e00f520005003a00e5668000dc
:1033ec0064fd200004826200e00f52000a003200eb
:1033fc00d082a900b5c920009542780004c2b30060
:10340c0004c272000002fd009becb7000002fd003c
:10341c00240ca80008003700d082a800b5c92000f1
:10342c0095427800f4cdb30004c262000400780029
:10343c009becb700240ca9000080fa0000000600e9
:10344c000200fa00000f78001e027800e90f52000b
:10345c003c013e001e0278007422b9000402780080
:10346c00ee0242000487200004824200140278001d
:10347c00e00f5200630032001e0278007422b90083
:10348c00040278008482e800048720000482420051
:10349c00140378001e0278007422b900040278002c
:1034ac00ea024200048720000482420014027800e1
:1034bc00840f5300530036001e0278007422b900aa
:1034cc0004027800ec0242000487200004824200cf
:1034dc0014027800e10f5200070036001e0278003b
:1034ec007422b90084027800c48720000482420050
:1034fc0015002000050a78001e0278007422b9001d
:10350c0004027800ee02420004872000048242008c
:10351c0014027800e30f520029003a001e027800d2
:10352c007422b90084027800e487200004824200ef
:10353c0025002000050a78001e0278007422b900cc
:10354c0004027800f2024200048720000482420048
:10355c0014027800e00f5200090032001e027800bd
:10356c007422b90004027800f202420004872000a1
:10357c0004824200140278002000200004000100a4
:10358c001e0278007422b90004027800ec0242009a
:10359c00048720000482420014027800e20f5200db
:1035ac0007003a001e0278007422b90084027800e9
:1035bc00c48720000482420015002000050a780010
:1035cc001e0278007422b90004027800ee02420058
:1035dc00048720000482420014027800e10f52009c
:1035ec00d8003a001e0278007422b90084027800d8
:1035fc00e48720000482420035002000050a780090
:10360c00d00037001e0278007422b9000402780042
:10361c00ec0242000487200004824200140278006d
:10362c00e00f5200630032001e0278007422b900d1
:10363c00040278008482e80004872000048242009f
:10364c00140378001e0278007422b900040278007a
:10365c00e802420004872000048242001402780031
:10366c00840f5300530031001e0278007422b900fd
:10367c0004027800ee02420004872000048242001b
:10368c0014027800e10f5200070036001e02780089
:10369c007422b90084027800e4872000048242007e
:1036ac0015002000050a78001e0278007422b9006b
:1036bc0004027800ec0242000487200004824200dd
:1036cc0014027800e30f520029003a001e02780021
:1036dc007422b90084027800c4872000048242005e
:1036ec0025002000050a78001e0278007422b9001b
:1036fc0004027800f2024200048720000482420097
:10370c0014027800e00f5200090032001e0278000b
:10371c007422b90004027800f202420004872000ef
:10372c000482420014027800100020000400010002
:10373c001e0278007422b90004027800ee024200e6
:10374c00048720000482420014027800e20f520029
:10375c0007003a001e0278007422b9008402780037
:10376c00e48720000482420015002000050a78003e
:10377c001e0278007422b90004027800ec024200a8
:10378c00048720000482420014027800e10f5200ea
:10379c006c003a001e0278007422b9008402780092
:1037ac00c48720000482420035002000050a7800fe
:1037bc00640037001e0278007422b90004027800fd
:1037cc00ee024200048720000482420014027800ba
:1037dc00e10f520009003e001e0278007422b9006d
:1037ec0004027800ec0242000487200004824200ac
:1037fc0014027800e10f5200520036001e027800cd
:10380c007422b90004027800ee0242000487200002
:10381c000482420014027800e30f520009003200c7
:10382c001e0278007422b90004027800ec024200f7
:10383c00048720000482420014027800e30f520037
:10384c000e003a001e0278007422b90004027800bf
:10385c00f002420004872000048242001402780027
:10386c000403e8001e0278007422b9008402780078
:10387c000488200004824200060a78001e027800a8
:10388c007422b90004027800f2024200048720007e
:10389c000482420014027800e00f5200090032004a
:1038ac001e0278007422b90004027800f202420071
:1038bc000487200004824200140278000000eb0010
:1038cc00040001001e0278007422b9000402780082
:1038dc00ee024200048720000482420014027800a9
:1038ec00e00f5200070032001e0278007422b9006b
:1038fc0084027800e4872000048242001500200036
:10390c00050a78001e0278007422b90004027800bf
:10391c00ec0242000487200004824200140278006a
:10392c00e00f5200070032001e0278007422b9002a
:10393c0084027800c4872000048242001500200015
:10394c00050a78000080fa00000006000400fa0066
:10395c00100798000042eb00044f78001e02900004
:10396c00e10f520003003200e20f5200230032003c
:10397c003400370055658000b40d2000848f520050
:10398c000c003e0054658000e00f520003003a002a
:10399c00546580000402e80054658800e44380000c
:1039ac00e10f52002a00360014002000e443880086
:1039bc002c00370064658000e00f52000b003200d1
:1039cc00e4438000e20f520002003a001400200091
:1039dc00e4438800f4438000e20f52001e003a00da
:1039ec0014002000f44388001e00370024aca8000b
:1039fc0014c0b300044f78001a00370064658000cf
:103a0c00e00f52000b003200e4438000e20f520042
:103a1c0002003a0014002000e4438800f4438000c4
:103a2c00e20f52000e003a0014002000f44388000c
:103a3c000c003700248ca80014c0b300044f78008d
:103a4c00080037000002eb005465880005003700c1
:103a5c0000000000030037000000000001003700e8
:103a6c00000000001e427800e04f520006003200b9
:103a7c00810020002000200085fd07008040eb0025
:103a8c0020c0b30048fd07000080fa0000000600cb
:103a9c000200fa00000f78001e027800e10f5200bd
:103aac0003003200e20f52001200320031003700e6
:103abc0074658000e00f520006003200c44580009f
:103acc00e20f520028003a0014002000c445880080
:103adc0028003700258ca8002100200020002000a1
:103aec006bfd07008040eb0020c0b3002efd0700eb
:103afc002000370074658000e00f52000600320091
:103b0c00d4458000e20f520019003a001400200046
:103b1c00d445880017003700244ca80024cb200083
:103b2c00144278000442e80004007800b2ecb700bc
:103b3c00110020002000200055fd070025cb20009f
:103b4c009542780014c0b300e4cf520001003e004f
:103b5c000042eb008440780010c0b30012fd070057
:103b6c0000000000030037000000000001003700d7
:103b7c00000000000080fa00000006000200fa00bd
:103b8c00000f78001e027800e10f52001f00320077
:103b9c00e20f52001f003a0074658000e00f5200e3
:103bac000600320074468000e20f52001b003a00ff
:103bbc00140020007446880019003700244ca8001b
:103bcc0024cb2000144278000442e8000400780062
:103bdc00b2ecb70011002000200020002cfd0700e3
:103bec0025cb20009542780014c0b300e4cf5200de
:103bfc0001003e000042eb008440780010c0b3008e
:103c0c00e9fc070000000000050037000000000080
:103c1c000300370000000000010037000000000026
:103c2c000080fa00000006000200fa00000f780085
:103c3c001e027800e10f520014003200e20f520015
:103c4c0014003a0084658000e00f52000600320038
:103c5c0014478000e20f520010003a0014002000bc
:103c6c00144788000e00370024cca8000101200066
:103c7c002000200006fd070011c0b30010c0b300e7
:103c8c00c9fc070000000000050037000000000020
:103c9c0003003700000000000100370000000000a6
:103cac000080fa00000006000200fa00000f780005
:103cbc001e027800e10f520008003a00246ca800a4
:103ccc004100200020002000f1fc070011c0b300cf
:103cdc0010c0b300b4fc0700010037000000000066
:103cec000080fa00000006000200fa00000f7800c5
:103cfc001e0278000402e900e10f520008003e00a9
:103d0c0025aca8000102200020002000e0fc0700e8
:103d1c008040eb0020c0b300a3fc0700010037007b
:103d2c00000000000080fa00000006000800fa0005
:103d3c00881f7800f4408000050020000400be00bd
:103d4c00cdf107000002be00a25e2700b390230055
:103d5c000400be00caf107000002be00048fbe00c2
:103d6c00d2cc2c00c3e423001e00be00c4f107001b
:103d7c000002be00240798003507980018c0b30055
:103d8c00d2cc2c00c3e423002e009000be00900087
:103d9c00eff1070000027800e00f5200010035003f
:103dac000044eb00e04f540004003200d4cc2c0053
:103dbc00c5e4230024079800350798001e01be00b7
:103dcc002e009000be009000e4f107000002be003f
:103ddc002407980035079800b2d6270013b12300aa
:103dec002e009000be00900039f207000002be00c9
:103dfc00240798003507980018c0b300020026006d
:103e0c00135324002e009000be00900072f20700a5
:103e1c0000027800e00f520001003c000044eb006f
:103e2c00e04f540004003200040026001553240017
:103e3c0024079800350798002e009000be009000d3
:103e4c0067f207000002be0004027800b445880047
:103e5c00a299290093e123001e00be0088f10700ff
:103e6c000002be00240798003507980018c0b30064
:103e7c00d2cc2c00c3e423002e009000be00900096
:103e8c00b3f1070000027800e00f5200010035008a
:103e9c000044eb00e04f540004003200d4cc2c0062
:103eac00c5e4230024079800350798002e019000e4
:103ebc00be0190001e00be00a7f107000002be006c
:103ecc00048fbe0018c0b3006011b8001e00be0005
:103edc009ff1070000027800e00f5200010035004e
:103eec000044eb00e04f5400020032006022b800a6
:103efc00048fbe00b2d6270013b123001e00be00f3
:103f0c00f3f107000002be00048fbe001e00be00cd
:103f1c0033f207000002be0004027800a4458800ba
:103f2c00c40d2000746588004f0478000080fa00ee
:103f3c00000006000c00fa00881f78001440800076
:103f4c00050020000400be004bf107000002be007b
:103f5c0052ec2b00e39a23000400be0048f107004a
:103f6c000002be004407980055079800d2cc2c00e4
:103f7c00c3dc23004e009000de00900040f10700ef
:103f8c000002be00048fbe0018c0b300d2cc2c00bf
:103f9c00c3e423001e00be006df107000002780090
:103fac00e00f5200010035000044eb00e04f5400dc
:103fbc0003003200d4cc2c00c5e42300048fbe00d7
:103fcc001e01be004e009000de00900063f1070061
:103fdc000002be002407980035079800826b200071
:103fec0063bb23002e009000be009000b8f10700c8
:103ffc000002be0024079800350798002e009000a0
:10400c00be009000f6f107000002be00040278002a
:10401c00d44388001e01be004e009000de009000cc
:10402c004df107000002be002407980035079800e8
:10403c0018c0b3006011b8002e009000be009000b4
:10404c0043f1070000027800e00f52000100350038
:10405c000044eb00e04f5400030032006022b80033
:10406c002407980035079800826b200063bb23005f
:10407c002e009000be00900095f107000002be00db
:10408c0024079800350798002e009000be00900081
:10409c00d3f107000002be0004027800c44388007c
:1040ac00c40d2000646588004f0478000080fa007d
:1040bc00000006000400fa00844080000500200087
:1040cc000400be00ecf007000002be0012c2230088
:1040dc00a3bd23000400be00e9f007000002be00ef
:1040ec00048fbe0002002000031224001e00be003c
:1040fc001af107000002be00048fbe006286280081
:10410c0033de23001e00be0071f107000002be006a
:10411c00048fbe001e00be00b1f107000002be00fd
:10412c0004027800f4468800c40d200084658800e1
:10413c000080fa00000006000000fa000080fa007f
:10414c00000006000000fa000080fa0000000600e3
:10415c000000fa000080fa00000006000000fa00df
:10416c00cdfa07000002eb00c46688000002eb00e9
:10417c00d46688000002eb00e466880064c0b300db
:10418c00040078009aecb7000080fa0000000600ea
:10419c000000fa000080fa00000006000200fa009d
:1041ac00000f78000080fa00000006000400fa00fe
:1041bc00004f7800110798000080fa0000000600fc
:1041cc000000fa000002eb00040078000080fa0006
:1041dc00000006000200fa000002eb00040f780059
:1041ec001e027800040078000080fa00000006002f
:1041fc000000fa00d522800004f02f0084826200b7
:10420c00f661800004f02f0004026300848f5200da
:10421c000a003600f5618000f40f20000482620071
:10422c00f4618800f5618000d622800004f02f0034
:10423c000402630004824200f4618800d5228000ed
:10424c00f40f200084826200f6618000f40f2000dd
:10425c0004026300848f52000a003600f56180006e
:10426c0004f02f0004826200f4618800f561800084
:10427c00d6228000f40f2000040263000482420066
:10428c00f461880054342c00f45f880034122f0041
:10429c0004608800043a8000945f880026000700c0
:1042ac00ea000700de010700ec010700e4c520006e
:1042bc00940278000400280004826200e00f52008f
:1042cc00010032000b020700e4628000b45f88003a
:1042dc00b55f8000b462800004824200b45f880045
:1042ec00b55f8000c462800004824200b45f880025
:1042fc00b55f8000d462800004824200b45f880005
:10430c00b55f80009462800004824200b45f880034
:10431c00b55f80008462800004824200b45f880034
:10432c00b55f80007462800004824200b45f880034
:10433c000080fa00000006000a00fa001e00370098
:10434c008e007800e0a920006c0b07009e0278001c
:10435c00840720008482620004042000848f5200b1
:10436c0004003200946280000402e8009462880029
:10437c00110037009e027800044c2100848f5200fb
:10438c0003003a000e007800160007000a00370000
:10439c009e02780004642100848f520003003a00ce
:1043ac000e0078006800070003003700746280007c
:1043bc000402e80074628800e0a92000010b0700e9
:1043cc0000027800e00f5200ddff3a00645a8000d2
:1043dc00b462880024558000c46288000080fa0012
:1043ec00000006000400fa00100798001e0290005e
:1043fc00c4029000050f780004002f009e0262009a
:10440c0004002800848f5200040032008462800073
:10441c000402e800846288001a003700f4ff2000d0
:10442c001e0f6200f40f20009e027800848f520051
:10443c0003003e001e00900014000700110037001e
:10444c00f41f20009e027800848f520003003e006f
:10445c001e009000240007000a003700f43f2000e3
:10446c009e027800848f520003003e001e009000d4
:10447c00fb09070003003700846280000402e80097
:10448c00846288000080fa00000006000400fa0034
:10449c00100798001e029000c4029000050f7800cf
:1044ac00f4ff20001e0f62001e027800e10f520084
:1044bc0003003200e30f5200030032000400370007
:1044cc000000fe0006003700ea0407000400370075
:1044dc00846280000402e80084628800000000000e
:1044ec000080fa00000006000400fa001007980093
:1044fc001e029000c4029000050f7800f4ff20000b
:10450c001e0f62001e0290001402900084007800be
:10451c001e007800f60707001e029000a40290000f
:10452c001e02e8008500780004007800f007070000
:10453c00000000000000000000000000000000006f
:10454c000080fa00000006000e00fa0060079800d8
:10455c006e029000c4029000050f780004002f003a
:10456c009e02620004002800848f52000400320076
:10457c00846280000402e800846288002e00370008
:10458c00f4ff20001e0f6200f48f20009e027800c2
:10459c00848f520004003600f49f20009e027800a5
:1045ac00848f520004003600846280000402e8000c
:1045bc00846288002000370004802f001e0f420008
:1045cc0044042a00140798006e029000c402900064
:1045dc0004802f0004824200540798000002eb0074
:1045ec00440798001e02e80004007800e907070061
:1045fc0000027800340798001e007800e5070700d9
:10460c000002780024079800000000000000000061
:10461c00000000000e82e8008400780060b42000e6
:10462c009e0a07007421800068026200e00f5200ad
:10463c0001003a0088c0a8000080fa0000000600c3
:10464c000000fa000080fa00000006000000fa00ea
:10465c00250480000404200004826200e00f520054
:10466c00a000320084c0a900d45480000402e800e9
:10467c00d4548800d45480006f026200d454880053
:10468c009a000700d454800005002000f60020009a
:10469c0007002000860f5200878f5a0091003e00c1
:1046ac00046001000f0037001800370021003700ac
:1046bc002a003700330037003c0037004500370034
:1046cc004e00370057003700600037006900370094
:1046dc00720037007b0037007c0037007d0037000c
:1046ec007e003700c45f8000b75f8000a65f80004b
:1046fc00955f8000870178000601780085007800be
:10470c000000eb008e00070076003700c4bf2000cd
:10471c0014037800d55f80000002eb008001eb00f1
:10472c000601780085007800100020008400070046
:10473c006c00370044608000376080002660800089
:10474c0015608000870178000601780085007800ec
:10475c00200020007a00070062003700846080008f
:10476c00776080006660800055608000870178006b
:10477c0006017800850078003000200070000700ea
:10478c0058003700c4608000b7608000a6608000cd
:10479c00956080008701780006017800850078001c
:1047ac0040002000660007004e00370004618000c6
:1047bc00f7608000e6608000d5608000870178009b
:1047cc000601780085007800500020005c0007008e
:1047dc00440037002462800017628000066280006b
:1047ec00f56180008701780006017800850078006b
:1047fc0080002000520007003a00370064628000fd
:10480c005762800046628000356280008701780024
:10481c000601780085007800900020004800070011
:10482c0030003700a46280009762800086628000ae
:10483c007562800087017800060178008500780099
:10484c00a00020003e00070026003700e462800034
:10485c00d7628000c6628000b56280008701780054
:10486c000601780085007800b000200034000700b5
:10487c001c003700a4618000976180008661800075
:10488c00756180008701780006017800850078004a
:10489c00600020002a00070012003700e46180004d
:1048ac00d7618000c6618000b56180008701780007
:1048bc0006017800850078007000200020000700b9
:1048cc0008003700320907000600370056090700b8
:1048dc00040037007a090700020037009e09070020
:1048ec00000000000080fa00000006000a00fa0038
:1048fc0044842a00040f780024c22000140278009b
:10490c001407980044c22000140278002407980071
:10491c00346180003407980044618000440798009b
:10492c00e14120000e007800230a07001462800089
:10493c000402e800146288000080fa0000000600ff
:10494c001400fa005007980061079800720798004d
:10495c00030f9800140f98005e0290006f02620023
:10496c0054079800de029000040820000502720033
:10497c00540798005e02900004024200540798000d
:10498c00de029000046020000502720054079800bb
:10499c005e0290004222dd00540798005e029000f7
:1049ac00040f78009e02780004f02f00048262004d
:1049bc00040f78001e0278004322dd00040f7800fb
:1049cc009e0278005e039000f40f20000402630046
:1049dc0005027200040f78001e0a9000140798005c
:1049ec000e0a9000240798007e029000340798006d
:1049fc006e029000440798008e00780060b420008e
:104a0c00a60907007421800068026200e00f5200c2
:104a1c0001003a0088c0a8000080fa0000000600df
:104a2c000000fa00250480000408200004826200c3
:104a3c00e00f52000700320084e0a900e46280001d
:104a4c000402e800e4628800e462800034688800b4
:104a5c00222ca8000080fa00000006000000fa00da
:104a6c00e4548000e00f520005003a00146180000d
:104a7c0061026200e00f5200010032009bff070050
:104a8c0014618000614262000482fb00e4548800df
:104a9c000080fa00000006000200fa00000f780007
:104aac00e4c520009e02780095029000050a78006b
:104abc001e027800a4029000e4c5200015029800a4
:104acc001e027800b4029000e4c520002502980074
:104adc00e4c520008082eb00350298000060fe00e7
:104aec00222ca9000002eb00540888000080fa0078
:104afc00000006000000fa000002eb00645a880077
:104b0c000002eb00245588000002eb0024688800aa
:104b1c000002eb00346888000002eb00945f880010
:104b2c000002eb00a45f88000002eb00b45f880079
:104b3c000002eb00c45f88000002eb00d45f880029
:104b4c000002eb00f45f88000002eb0004608800b8
:104b5c000002eb00146088000002eb002460880067
:104b6c000002eb00346088000002eb004460880017
:104b7c000002eb00546088000002eb0064608800c7
:104b8c000002eb00746088000002eb008460880077
:104b9c000002eb00946088000002eb00a460880027
:104bac000002eb00b46088000002eb00c4608800d7
:104bbc000002eb00d46088000002eb00e460880087
:104bcc000002eb00f46088000002eb000461880036
:104bdc000002eb00f46188000002eb000462880024
:104bec000002eb00146288000002eb0024628800d3
:104bfc000002eb00346288000002eb004462880083
:104c0c000002eb00546288000002eb006462880032
:104c1c000002eb00746288000002eb0084628800e2
:104c2c000002eb00946288000002eb00a462880092
:104c3c000002eb00b46288000002eb00c462880042
:104c4c000002eb00d46288000002eb00e4628800f2
:104c5c000002eb00b422880041e7a90041c7a9007b
:104c6c0040e7a9004087a9004067a9004047a90078
:104c7c004027a9004007a90040c7a9000080fa00fe
:104c8c00000006000000fa00246880000402e8001e
:104c9c0024688800e4c520008002eb00050a780037
:104cac00e4c520001500200015029800e4c5200082
:104cbc002500200025029800e4c5200035002000c6
:104ccc003502980024688000d45f88003468800026
:104cdc00e462880090c0a90088c0a9003405800057
:104cec000480a1000490a10004a0a0003405880059
:104cfc000002eb00b42288005804a8005824a80035
:104d0c005844a80058a4a800e0a9200034090700c2
:104d1c0060b420003209070004402000842288007f
:104d2c000000000085228000040e200084826200b6
:104d3c0004082000848f5200faff3a00140020006f
:104d4c0094228800a4392000a42288001480210019
:104d5c00841f8800d4872100c41f88000002eb0048
:104d6c00041e880004802000441e880004042100d6
:104d7c00841e8800c47f2100c41e8800c47f2100cb
:104d8c00041f8800c47f2100441f880014002000e9
:104d9c007421880024002000f420880034002000b6
:104dac0074208800040c200024218800040c2000ae
:104dbc00a4208800040c2000242088000002eb00b2
:104dcc00742288000002eb00f42188000002eb0042
:104ddc00842288000000000085228000040e200040
:104dec0004826200e00f5200fbff3a0090c0a80062
:104dfc0054fb25008408880024f4200064088800f3
:104e0c000002eb003408880084c0a9008cc0a90003
:104e1c0011e1a800d4fb25009408880054622200fc
:104e2c007408880084e0a9008ce0a90013e1a800b4
:104e3c000002eb007461880074c82800846188004b
:104e4c000002eb009461880014042000a461880027
:104e5c0044062000b46188000080fa0000000600bf
:104e6c003600f800809fbe00829fbe00849fbe006b
:104e7c00869fbe00889fbe004400f8004200f800e8
:104e8c000a00fa0088c0a90065628000b422800084
:104e9c0005027200646288007522800004082000fc
:104eac0004826200e00f5200240032007422800061
:104ebc0061026200e00f52000f003a003462800081
:104ecc000402e80034628800e14420000e007800ff
:104edc0028028000190280005c0807001902880073
:104eec00280288002e029000745f88001e02900039
:104efc00845f880010003700446280000402e800e0
:104f0c0044628800e14420000e00780028028000f2
:104f1c00190280004d080700190288002802880039
:104f2c000e0078002802800019028000dafe0700cb
:104f3c0019028800280288005604a900f521800077
:104f4c000408200004826200e00f52000b003200c3
:104f5c00546280000402e80054628800e14320009f
:104f6c00e0a9200028028000190280001a0807001e
:104f7c0019028800280288005624a9007421800098
:104f8c0068026200e00f520014003a0060b4200086
:104f9c0028028000190280000a0807001902880004
:104fac002802880000027800e00f52000b0032004b
:104fbc00e142200060b42000280280001902800029
:104fcc006708070019028800280288005644a900c7
:104fdc00a46280000402e800a4628800b52280006c
:104fec000402200004826200e00f5200090032002b
:104ffc00d5628000b422800005027200d462880061
:10500c00046280000402e8000462880056a4a9002f
:10501c00070037008416800064026200e00f520023
:10502c0002003200d042a90001003700d042a80093
:10503c00d522800004f02f0084826200f66180008b
:10504c0004f02f0004026300848f52000a00360023
:10505c00f5618000f40f200004826200f461880086
:10506c00f5618000d622800004f02f00040263005a
:10507c0004824200f4618800d5228000f40f2000e5
:10508c0084826200f6618000f40f20000402630049
:10509c00848f52000a003600f561800004f02f0066
:1050ac0004826200f4618800f5618000d6228000e1
:1050bc00f40f20000402630004824200f4618800b3
:1050cc000080fa004200f9004400f9004f04be00d1
:1050dc004f03be004f02be004f01be004f00be008a
:1050ec003600f900004006000e00fa005007980048
:1050fc006107980004042000040f78006e029000f1
:10510c00140798005e029000e00f5200030032007a
:10511c000082eb0024079800020037000002eb002d
:10512c00240798002e029000e4608800e1402000e3
:10513c000e00780020080700246280000402e800ba
:10514c00246288000080fa00000006001200fa00b9
:10515c00100798002107980032079800034f980019
:10516c00540798006507980076079800070f980079
:10517c000002eb00040f78001e0390006022b800c0
:10518c00048bbe001e0290008002eb0025029800ea
:10519c001e0290008002eb00350298001e02900067
:1051ac00ae029000450298001e029000be029000d4
:1051bc00550298000e4a9000ef4f52000d00360039
:1051cc001e02900005002800650298001e02900047
:1051dc008002eb00750298001e029000050028006a
:1051ec00050a98001e0290008002eb00150a980038
:1051fc001f0037000e4a90000482fb000404b0002c
:10520c004222dd00040f78001e007800e104070044
:10521c0000027800840278001e029000750298004b
:10522c001e02e80004007800da040700000278008f
:10523c009e029000e40298001e82e80004007800b0
:10524c00d404070000027800840278001e0290004b
:10525c00150a98009e0278006382420004007800d0
:10526c00cc040700000278009e029000840a98008b
:10527c001e029000de029000250a98001e0290008b
:10528c00ee029000350a98001e029000fe0290007b
:10529c00550a98001e0290008e0a9000650a98002c
:1052ac001e0290008002eb00750a98001e0290000e
:1052bc008002eb00051298001e029000ceba9700f7
:1052cc00151298000080fa00000006001000fa0089
:1052dc00100798002107980032079800034f980098
:1052ec005407980065079800760798000002eb00b9
:1052fc00040f78001e0290008002eb00250298003b
:10530c001e029000de029000350298001e029000f2
:10531c00ee029000450298001e029000fe029000e2
:10532c00550298001e029000ae0290006502980093
:10533c001e029000be029000750298000e4a90006a
:10534c00e74f52000d0036001e02900005002800a9
:10535c00050a98001e0290008002eb00150a9800c6
:10536c001e02900005002800250a98001e029000dd
:10537c008002eb00350a98001f0037000e4a90009f
:10538c000482fb000405b0004222dd00040f78000b
:10539c001e0078007f040700000278008402780069
:1053ac001e029000150a98001e02e8000400780006
:1053bc0078040700000278009e029000840a98008e
:1053cc001e82e800040078007204070000027800d6
:1053dc00840278001e029000350a98009e02780024
:1053ec0063824200040078006a040700000278001f
:1053fc009e029000a40a98000080fa0000000600ab
:10540c000400fa00100798001e029000740390002c
:10541c001e029000e40290001e029000140278001c
:10542c00060178008500780004007800cc0707009e
:10543c0000027800040f78001e029000940a90007d
:10544c001e029000040a9000050178008400780088
:10545c001e007800ad07070000027800040f7800ea
:10546c001e029000b40a90001e029000240a9000c4
:10547c0005017800840078001e007800a30707005f
:10548c0000027800040f78001e02900024029000a5
:10549c00e00f520003003a001e029000d40290006c
:1054ac00050f78001e0290009e02780015029800ed
:1054bc000080fa00000006000400fa0010079800b3
:1054cc001e029000140b90001e029000840a9000a3
:1054dc001e029000240290000601780085007800de
:1054ec00040078008907070000027800040f780098
:1054fc001e029000f40290001e02900064029000c4
:10550c0005017800840078001e0078007f070700f2
:10551c0000027800040f78001e029000d402900064
:10552c001e0290004402900005017800840078006f
:10553c001e0078008a07070000027800040f78002c
:10554c001e0290009e027800350298000080fa003e
:10555c00000006000400fa00000f78001107980004
:10556c001e027800b40290001e029000848f52003c
:10557c00030031001e027800b40290001507980059
:10558c001e027800c40290001e029000848f52000c
:10559c00030036001e027800c40290001507980024
:1055ac001e0278009e029000050a78000080fa0026
:1055bc00000006000200fa00000f78001e027800be
:1055cc00b40290001e027800240a9000848f5200ce
:1055dc000200360014002000010037000002eb002e
:1055ec00040078000080fa00000006000200fa00b7
:1055fc00000f78001e027800b40290001e027800a2
:10560c00340a9000848f52000200310014002000f4
:10561c00010037000002eb00040078000080fa0063
:10562c00000006000400fa00100798001e0290000b
:10563c00d40a90001e029000440a90000001eb0076
:10564c00850078000400780030070700000278001d
:10565c00040f78001e029000640a90009e0f520006
:10566c00030036001e029000e40a9000050f78003b
:10567c0004f02f009e0252001e029000440a90007b
:10568c00848f5200040036001e029000440a9000e1
:10569c001e0f42000200370004f02f00040f7800a8
:1056ac001e029000340290009e0f5200060036003d
:1056bc001e029000740a90008402e8001e02900002
:1056cc00750a9800090037001e029000740a9000b9
:1056dc00e00f5200050032001e029000740a900088
:1056ec008402e9001e029000750a98001e029000c8
:1056fc00f40a90001e02900014129000848f520045
:10570c000f0039001e029000f40a90001e02900057
:10571c001412900004024200848f520006003900db
:10572c001e029000141290000402420084027800c1
:10573c001e029000750a980014002000010037002a
:10574c000002eb00040078000080fa000000060064
:10575c000400fa00100798001e029000d40a900072
:10576c001e029000440a90000001eb0085007800b6
:10577c0004007800e506070000027800040f7800aa
:10578c001e029000640a90009e0f52000300360027
:10579c001e029000e40a9000050f78001e02900093
:1057ac00440a90009e0f5200040036001e02900026
:1057bc00440a90001e0f5200020037000002eb005a
:1057cc00040f78001e029000340290009e0f5200cd
:1057dc00060031001e029000041290008402e800c2
:1057ec001e02900005129800090037001e0290005e
:1057fc0004129000e00f5200050032001e029000cf
:10580c00041290008402e9001e0290000512980018
:10581c001e029000841290001e0290001412900040
:10582c00848f52000f0039001e02900084129000e9
:10583c001e0290001412900004024200848f520049
:10584c00060039001e02900014129000040242005f
:10585c00840278001e0290000512980014002000ab
:10586c00010037000002eb00040078000080fa0011
:10587c00000006000000fa0062562800010120001a
:10588c000001200067030700625628000101200078
:10589c00100120006303070062562800010120005c
:1058ac00200120005f030700625628000101200040
:1058bc00300120005b030700625628000101200024
:1058cc004001200057030700625628000101200008
:1058dc0050012000530307006258280001012000ea
:1058ec00600120004f0307006258280001012000ce
:1058fc00700120004b0307000080fa000000060036
:10590c001400fa00404798003107980042079800ad
:10591c00530798006407980075079800060f9800c5
:10592c00170f98003e029000f401b3003407980062
:10593c000e0b90009e0b9000463add00ca32de0042
:10594c00850272004632dd006e019000fe0190006f
:10595c000400be00b8ea07000002be00048fbe00bf
:10596c0004202000050020001e03be00840f5300fd
:10597c00858f5b0003003e0014002000b467880094
:10598c003200370034802000050020001e03be00ca
:10599c00840f5300858f5b000d003e0044002000f7
:1059ac00b46788001e02be004e2bdd004222de00d2
:1059bc0004027300c22ade00048fbe00be029000f7
:1059cc00e4ff2f0004826200340798001f003700a8
:1059dc00f4002200050020001e03be00840f5300bb
:1059ec00858f5b000d003e0004012000b467880029
:1059fc001e02be004c2bdd004422de0004027300ac
:105a0c00c42ade00048fbe00be029000d4ff2f001b
:105a1c0004826200340798000c0037000404200054
:105a2c00b46788001e02be004a2bdd004622de0051
:105a3c0004027300c62ade00048fbe00be02900072
:105a4c00c4ff2f000482620034079800041c20005d
:105a5c00050020001e03be00840f5300858f5b00e1
:105a6c0008003600b46780004322dd00b46788006c
:105a7c00be02900034fe2f000482620034079800ae
:105a8c005700370004182000050020001e03be003c
:105a9c00840f5300858f5b0009003600b4678000cb
:105aac006722b90004027800b4678800be02900037
